:020000040800F2
:100000000C3000206D030008DD030008DD0300084C
:10001000DD030008DD030008DD0300080000000028
:10002000000000000000000000000000C1100008F7
:10003000DD03000800000000F11200084113000871
:10004000DD030008DD030008DD030008DD03000810
:10005000DD030008DD030008DD030008DD03000800
:10006000DD030008DD030008DD030008DD030008F0
:10007000DD030008DD030008DD030008DD030008E0
:10008000DD030008DD030008DD030008DD030008D0
:10009000DD030008DD030008DD030008DD030008C0
:1000A000DD030008DD030008DD030008DD030008B0
:1000B000DD030008DD030008DD030008DD030008A0
:1000C000DD030008DD030008DD030008DD03000890
:1000D000DD030008DD030008DD030008DD03000880
:1000E000DD030008DD030008DD0300080000000058
:1000F0000000000000000000000000000000000000
:1001000000000000000000005FF808F180B500AFBB
:100110004FF48053C4F202034FF48052C4F202023F
:10012000126842F001021A604FF48052C4F20202D7
:100130004FF48053C4F2020359684FF00003CFF626
:10014000FF030B4053604FF48053C4F202034FF49B
:100150008052C4F20202126822F0847222F48032C9
:100160001A604FF48053C4F202034FF48052C4F279
:100170000202126822F480221A604FF48053C4F203
:1001800002034FF48052C4F20202526822F4FE02CB
:100190005A604FF48053C4F202034FF41F029A6076
:1001A00000F008F84FF46D43CEF200034FF0006208
:1001B0009A6080BD80B500AF00F002F880BD00BF3E
:1001C00080B483B000AF4FF000037B604FF00003BA
:1001D0003B604FF48053C4F202034FF48052C4F2E8
:1001E0000202126842F480321A604FF48053C4F263
:1001F00002031B6803F400333B607B6803F10103D7
:100200007B603B68002B03D17B68B3F5A06FECD11A
:100210004FF48053C4F202031B6803F40033002B35
:1002200003D04FF001033B6002E04FF000033B605E
:100230003B68012B40F094804FF40053C4F202035A
:100240004FF40052C4F20202126842F010021A6027
:100250004FF40053C4F202034FF40052C4F20202FE
:10026000126822F003021A604FF40053C4F2020332
:100270004FF40052C4F20202126842F002021A6005
:100280004FF48053C4F202034FF48052C4F20202CE
:1002900052685A604FF48053C4F202034FF4805204
:1002A000C4F2020252685A604FF48053C4F202034F
:1002B0004FF48052C4F20202526842F480625A60E3
:1002C0004FF48053C4F202034FF48052C4F202028E
:1002D000526822F47C125A604FF48053C4F2020335
:1002E0004FF48052C4F20202526842F4E8125A609B
:1002F0004FF48053C4F202034FF48052C4F202025E
:10030000126842F080721A6000BF4FF48053C4F24A
:1003100002031B6803F00073002BF6D04FF48053E8
:10032000C4F202034FF48052C4F20202526822F077
:1003300003025A604FF48053C4F202034FF4805218
:10034000C4F20202526842F002025A6000BF4FF447
:100350008053C4F202035B6803F00C03082BF6D150
:1003600007F10C07BD4680BC704700BF80B582B066
:1003700000AF41F21863C0F600037B6040F2000357
:10038000C2F200033B600BE07B681A683B681A60AE
:100390003B6803F104033B607B6803F104037B606B
:1003A0003A6840F20403C2F200039A42ECD30948CF
:1003B00009494FF000028842B8BF40F8042BFFF60D
:1003C000FAAFFFF7A3FE00F00DF807F10807BD46EE
:1003D00080BD000004000020102C002080B400AF7D
:1003E000FEE700BF80B582B002AF4FF0010300937B
:1003F0004FF00003019340F24940C0F6000041F283
:100400000061C0F600014FF064024FF0000300F0FD
:1004100049F84FF0010300934FF00003019340F2BD
:100420006140C0F6000041F20861C0F600014FF0E3
:1004300064024FF0000300F035F800F0A1F94FF02E
:1004400000031846BD4680BD80B485B000AF78601B
:100450004FF00003FB60FB6803F10103FB60FAE768
:1004600080B485B000AF78604FF00003FB60FB689C
:1004700003F10103FB60FAE780B400AFFEE700BFC1
:1004800080B483B000AF78603960FEE780B582B099
:1004900000AF01F007F803467B607B6807F10807AF
:1004A000BD4680BD80B58CB004AFF860B9603B60DC
:1004B0001346FB80FB884FEA8303184600F078FF61
:1004C00078617B69002B0FD04FF0500000F070FF77
:1004D000F861FB69002B03D0FB697A691A6306E0B7
:1004E000786900F0C9FF02E04FF00003FB61FB698F
:1004F000002B16D0FB88BA6A0092FA6A0192FA6958
:1005000002924FF000020392F868B9681A463B68FD
:1005100000F010F8F86900F09FF84FF00103BB619C
:1005200002E04FF0FF33BB61BB69184607F12007BB
:10053000BD4680BD90B589B000AFF860B9607A6003
:100540003B60BB6B1A6B7B684FEA830310464FF02E
:10055000A5011A4600F0B6FFBB6B1A6B7B6803F16E
:10056000FF334FEA8303D318BB61BB6923F0070352
:10057000BB61BB6903F00703002B09D04FF05004A7
:1005800084F31188BFF36F8FBFF34F8F7C61FEE759
:100590004FF00003FB6113E0BA68FB69D3181A78C7
:1005A000B96BFB69CB1803F130031A71BA68FB69A8
:1005B000D3181B78002B07D0FB6903F10103FB6103
:1005C000FB69092BE8D900E000BFBB6B4FF00002CC
:1005D00083F83D203B6B042B02D94FF004033B63AF
:1005E000BB6B3A6BDA62BB6B3A6B1A64BB6B4FF056
:1005F00000025A64BB6B03F10403184600F0ACFC24
:10060000BB6B03F11803184600F0A6FCBB6BBA6B7A
:100610001A613B6BC3F10502BB6B9A61BB6BBA6B92
:100620005A62BB6B4FF000029A64BB6B4FF0000242
:1006300083F84C20B869F9683A6800F0EBFC024690
:10064000BB6B1A607B6B002B02D07B6BBA6B1A60A2
:1006500007F12407BD4690BD80B582B000AF786039
:1006600000F0DCFD40F2DC03C2F200031B6803F182
:10067000010240F2DC03C2F200031A6040F20403FC
:10068000C2F200031B68002B0FD140F20403C2F238
:1006900000037A681A6040F2DC03C2F200031B68B0
:1006A000012B19D100F05AFB16E040F2E803C2F228
:1006B00000031B68002B0FD140F20403C2F20003B9
:1006C0001B68DA6A7B68DB6A9A4205D840F2040349
:1006D000C2F200037A681A6040F2F803C2F2000323
:1006E0001B6803F1010240F2F803C2F200031A6032
:1006F0007B68DB6A4FF0010202FA03F240F2E40386
:10070000C2F200031B681A4340F2E403C2F2000382
:100710001A607B68DA6A13464FEA83039B184FEA34
:10072000830340F20802C2F200029A187B6803F1C8
:1007300004031046194600F01DFC00F0A5FD40F230
:10074000E803C2F200031B68002B14D040F204033C
:10075000C2F200031B68DA6A7B68DB6A9A420AD23B
:100760004EF60453CEF200034FF080521A60BFF3EE
:100770004F8FBFF36F8F07F10807BD4680BD00BFE5
:1007800090B587B002AF4FF00003009340F2001322
:10079000C2F20003019340F62550C0F6000041F27A
:1007A0001061C0F600014FF032024FF00003FFF776
:1007B00079FEF860FB68012B20D14FF0500484F3E0
:1007C0001188BFF36F8FBFF34F8FBC6040F2FC0303
:1007D000C2F200034FF0FF321A6040F2E803C2F2A7
:1007E00000034FF001021A6040F2E003C2F200037E
:1007F0004FF000021A6000F08BFC0DE0FB68B3F1D3
:10080000FF3F09D14FF0500484F31188BFF36F8F7D
:10081000BFF34F8F7C60FEE707F11407BD4690BD24
:1008200080B400AF40F20413C2F200031B6803F16E
:10083000010240F20413C2F200031A60BD4680BCFC
:10084000704700BF90B585B000AF4FF00003FB606C
:100850004FF00003BB6040F20413C2F200031B68B8
:10086000002B09D14FF0500484F31188BFF36F8F30
:10087000BFF34F8F3C60FEE700F0D0FC40F2041362
:10088000C2F200031B6803F1FF3240F20413C2F20C
:1008900000031A6040F20413C2F200031B68002B2D
:1008A00040F0968040F2DC03C2F200031B68002B8C
:1008B00000F08E8048E040F29C03C2F20003DB6847
:1008C000DB68FB60FB6803F11803184600F076FB59
:1008D000FB6803F10403184600F070FBFB68DB6A59
:1008E0004FF0010202FA03F240F2E403C2F2000305
:1008F0001B681A4340F2E403C2F200031A60FB686B
:10090000DA6A13464FEA83039B184FEA830340F2E7
:100910000802C2F200029A18FB6803F104031046B1
:10092000194600F027FBFB68DA6A40F20403C2F2C2
:1009300000031B68DB6A9A4206D340F2F003C2F25E
:1009400000034FF001021A6040F29C03C2F2000360
:100950001B68002BAFD1FB68002B01D000F0AEFA72
:1009600040F2EC03C2F200031B687B607B68002B43
:1009700019D000F035F80346002B06D040F2F00302
:10098000C2F200034FF001021A607B6803F1FF33EB
:100990007B607B68002BECD140F2EC03C2F20003D9
:1009A0004FF000021A6040F2F003C2F200031B682D
:1009B000002B0DD04FF00103BB604EF60453CEF276
:1009C00000034FF080521A60BFF34F8FBFF36F8F59
:1009D00000F05AFCBB68184607F11407BD4690BDED
:1009E00090B587B000AF4FF000037B6140F2041375
:1009F000C2F200031B68002B40F0D98040F2E003F4
:100A0000C2F200031B6803F101033B6140F2E00303
:100A1000C2F200033A691A603B69002B35D140F2FB
:100A20009403C2F200031B681B68002B09D04FF02F
:100A3000500484F31188BFF36F8FBFF34F8F3C6076
:100A4000FEE740F29403C2F200031B68FB6040F231
:100A50009803C2F200031A6840F29403C2F2000342
:100A60001A6040F29803C2F20003FA681A6040F27A
:100A7000F403C2F200031B6803F1010240F2F40325
:100A8000C2F200031A6000F019FA40F2FC03C2F24D
:100A900000031B683A699A4271D300E000BF40F23C
:100AA0009403C2F200031B681B68002B02D14FF0B5
:100AB000010301E04FF00003002B07D040F2FC03DC
:100AC000C2F200034FF0FF321A6058E040F2940384
:100AD000C2F200031B68DB68DB68BB60BB685B6855
:100AE0007B603A697B689A4206D240F2FC03C2F20C
:100AF00000037A681A6042E0BB6803F104031846F9
:100B000000F05CFABB689B6A002B05D0BB6803F160
:100B10001803184600F052FABB68DB6A4FF0010276
:100B200002FA03F240F2E403C2F200031B681A4324
:100B300040F2E403C2F200031A60BB68DA6A1346AB
:100B40004FEA83039B184FEA830340F20802C2F284
:100B500000029A18BB6803F104031046194600F01E
:100B600009FABB68DA6A40F20403C2F200031B68A8
:100B7000DB6A9A4292D34FF001037B618EE740F229
:100B80000403C2F200031B68D96A40F20802C2F2F1
:100B900000020B464FEA83035B184FEA8303D31826
:100BA0001B68012B0FD94FF001037B610BE040F272
:100BB000EC03C2F200031B6803F1010240F2EC03F4
:100BC000C2F200031A6040F2F003C2F200031B6895
:100BD000002B02D04FF001037B617B69184607F1BF
:100BE0001C07BD4690BD00BF90B589B000AF40F274
:100BF0000413C2F200031B68002B07D040F2F0037D
:100C0000C2F200034FF001021A6087E040F2F003E5
:100C1000C2F200034FF000021A6040F20403C2F275
:100C200000031B681B6BFB614FF0A533BB61FB69C5
:100C30001A68BB699A4214D1FB6903F104031A686C
:100C4000BB699A420DD1FB6903F108031A68BB69BD
:100C50009A4206D1FB6903F10C031A68BB699A42F8
:100C60000FD040F20403C2F200031A6840F20403FA
:100C7000C2F200031B6803F1340310461946FFF764
:100C8000FFFB40F2E403C2F200031B68FB60FB6859
:100C9000B3FA83F4FC72FB7AC3F11F037B6140F269
:100CA0000802C2F2000279690B464FEA83035B181F
:100CB0004FEA8303D3181B68002B09D14FF050046F
:100CC00084F31188BFF36F8FBFF34F8F7C60FEE713
:100CD0007A6913464FEA83039B184FEA830340F275
:100CE0000802C2F200029B183B613B695B685A68CC
:100CF0003B695A603B695A683B6903F108039A42B1
:100D000004D13B695B685A683B695A603B695B6820
:100D1000DA6840F20403C2F200031A6007F1240704
:100D2000BD4690BD80B582B000AF786000F068F835
:100D300040F20803C2F200031B68012B0AD94EF6E9
:100D40000453CEF200034FF080521A60BFF34F8F6E
:100D5000BFF36F8FFFF79AFBE8E700BF80B582B063
:100D600000AF4FF000037B6012E07A6813464FEA51
:100D700083039B184FEA830340F20802C2F2000289
:100D80009B18184600F0C8F87B6803F101037B60EC
:100D90007B68042BE9D940F26C00C2F2000000F03D
:100DA000BBF840F28000C2F2000000F0B5F840F25B
:100DB0009C00C2F2000000F0AFF840F2B000C2F2B6
:100DC000000000F0A9F840F2C800C2F2000000F0F4
:100DD000A3F840F29403C2F2000340F26C02C2F2A4
:100DE00000021A6040F29803C2F2000340F280024F
:100DF000C2F200021A6007F10807BD4680BD00BFBD
:100E000080B582B000AF3DE0FFF70AFD40F2B003CD
:100E1000C2F200031B68002B14BF00230123DBB2C6
:100E20007B60FFF70FFD7B68002B2BD100F0F6F9FC
:100E300040F2B003C2F20003DB68DB683B603B6852
:100E400003F10403184600F0B9F840F2DC03C2F2E3
:100E500000031B6803F1FF3240F2DC03C2F200031F
:100E60001A6040F2C403C2F200031B6803F1FF32B0
:100E700040F2C403C2F200031A6000F005FA3868B9
:100E800000F00CF840F2C403C2F200031B68002B10
:100E9000BAD107F10807BD4680BD00BF80B582B05A
:100EA00000AF78607B681B6B184600F0E5FA786845
:100EB00000F0E2FA07F10807BD4680BD80B483B0B8
:100EC00000AF40F29403C2F200031B681B68002BC2
:100ED00002D14FF0010301E04FF00003002B07D0D7
:100EE00040F2FC03C2F200034FF0FF321A600EE042
:100EF00040F29403C2F200031B68DB68DB687B608E
:100F00007B685A6840F2FC03C2F200031A6007F1E2
:100F10000C07BD4680BC704780B483B000AF7860DA
:100F20007B6803F108027B685A607B684FF0FF32F0
:100F30009A607B6803F108027B68DA607B6803F1E2
:100F400008027B681A617B684FF000021A6007F1A3
:100F50000C07BD4680BC704780B483B000AF78609A
:100F60007B684FF000021A6107F10C07BD4680BC98
:100F7000704700BF80B485B000AF786039607B688F
:100F80005B68FB603B68FA685A60FB689A683B687C
:100F90009A60FB689B683A685A60FB683A689A6096
:100FA0003B687A681A617B681B6803F101027B6801
:100FB0001A6007F11407BD4680BC704780B485B045
:100FC00000AF78607B681B69FB607B685B687A6850
:100FD00092689A607B689B687A6852685A60FB687E
:100FE0005A687B689A4203D17B689A68FB685A60AA
:100FF0007B684FF000021A61FB681B6803F1FF3247
:10100000FB681A60FB681B68184607F11407BD46A9
:1010100080BC704780B485B000AFF860B9607A607A
:10102000FB68A3F10403FB60FB684FF080721A6059
:10103000FB68A3F10403FB60BB6823F00102FB68BB
:101040001A60FB68A3F10403FB6041F27D03C0F664
:101050000003FA681360FB68A3F11403FB607A686D
:10106000FB681A60FB68A3F12003FB60FB6818466D
:1010700007F11407BD4680BC704700BF90B482B032
:1010800000AF40F20003C2F200031B68B3F1FF3F60
:1010900009D04FF0500484F31188BFF36F8FBFF372
:1010A0004F8F7C60FEE74FF0500484F31188BFF34C
:1010B0006F8FBFF34F8F3C60FEE700BF0000000062
:1010C000074B19680868B0E8F00F80F30988BFF390
:1010D0006F8F4FF0000080F311884EF00D0E7047B7
:1010E00004000020AFF30080AFF30080AFF3008076
:1010F00006480068006880F3088862B661B6BFF3EE
:101100004F8FBFF36F8F00DF00BF000008ED00E0DE
:1011100080B584B000AF4FF46443CEF20003FB60AF
:10112000FB681B78DBB2BB60FB684FF0FF021A70F4
:10113000FB681B78DBB2FB71FB79DBB203F0500379
:10114000DAB240F20813C2F200031A7040F20C1334
:10115000C2F200034FF007021A6011E040F20C13D4
:10116000C2F200031B6803F1FF3240F20C13C2F21B
:1011700000031A60FB79DBB24FEA4303DBB2FB7179
:10118000FB79DBB2DBB25BB2002BE7DB40F20C1386
:10119000C2F200031B684FEA032240F20C13C2F2B2
:1011A00000031A6040F20C13C2F200031B6803F440
:1011B000E06240F20C13C2F200031A60BB68DAB2BC
:1011C000FB681A704EF62053CEF200034EF6205202
:1011D000CEF20002126842F470021A604EF62053FA
:1011E000CEF200034EF62052CEF20002126842F018
:1011F00070421A6000F0C6F840F20003C2F2000329
:101200004FF000021A60FFF773FFFFF737FF4FF050
:101210000003184607F11007BD4680BD90B482B0A8
:1012200000AF4FF0500484F31188BFF36F8FBFF30A
:101230004F8F7C6040F20003C2F200031B6803F191
:10124000010240F20003C2F200031A6040F2000300
:10125000C2F200031B68012B11D14EF60453CEF2EB
:1012600000031B68DBB2002B09D04FF0500484F35D
:101270001188BFF36F8FBFF34F8F3C60FEE707F11C
:101280000807BD4690BC704790B482B000AF40F2F2
:101290000003C2F200031B68002B09D14FF0500479
:1012A00084F31188BFF36F8FBFF34F8F7C60FEE72D
:1012B00040F20003C2F200031B6803F1FF3240F268
:1012C0000003C2F200031A6040F20003C2F20003FE
:1012D0001B68002B05D14FF000033B603B6883F394
:1012E000118807F10807BD4690BC70470000000058
:1012F000EFF30980BFF36F8F0D4B1A6820E9F00FF1
:1013000010602DE908404FF0500080F31188FFF77E
:101310006BFC4FF0000080F31188BDE808401968AD
:101320000868B0E8F00F80F30988BFF36F8F70474B
:1013300004000020AFF30080AFF30080AFF3008023
:1013400090B583B000AF4FF0500484F31188BFF321
:101350006F8FBFF34F8F7C60FFF742FB0346002B7C
:1013600006D04EF60453CEF200034FF080521A60BE
:101370004FF000033B603B6883F3118807F10C07D3
:10138000BD4690BD80B400AF4EF21403CEF2000310
:1013900041F63F12C0F201021A604EF21003CEF283
:1013A00000034FF007021A60BD4680BC704700BFC3
:1013B00080B584B000AF78604FF00003FB607B68BD
:1013C00003F00703002B05D07B6823F0070303F12C
:1013D00008037B60FFF724FA42F60C43C2F20003D5
:1013E0001B68002B08D1234B23F007031A4642F653
:1013F0000C43C2F200031A6042F60843C2F2000333
:101400001A687B68D21842F6EF239A4225D842F632
:101410000843C2F200031A687B68D21842F60843F8
:10142000C2F200031B689A4217D942F60C43C2F27B
:1014300000031A6842F60843C2F200031B68D3187F
:10144000FB6042F60843C2F200031A687B68D218B8
:1014500042F60843C2F200031A60FFF7F3F9FB6893
:10146000002B01D1FFF708F8FB68184607F11007B9
:10147000BD4680BD1801002090B484B000AF7860F4
:101480007B68002B09D04FF0500484F31188BFF320
:101490006F8FBFF34F8FFC60FEE707F11007BD466B
:1014A00090BC704780B400AF42F60843C2F200031C
:1014B0001B68C3F52B5303F130031846BD4680BCAF
:1014C000704700BFF0B48407034600F08D80541EBF
:1014D000002A00F08780E507CEB211D41A4602F840
:1014E000016B13461546920710D0621E002C79D06E
:1014F00003F8016B14469A071D4607D0013CEDE73F
:10150000034603F8016B9A071D46F7D1032C52D905
:10151000CEB246EA06270F2C47EA07432DD9A4F19D
:10152000100217460F2FC2F300162B606B60AB60E2
:10153000EB6005F1100216D93EB1103F1360536005
:101540009360D36010320F2F0DD9203F02F11006A7
:10155000136053609360D360136153619361D361EF
:1015600020320F2FF1D8A4F1100222F00F0204F064
:101570000F041032032C15441DD9271F3E462A465E
:10158000032E42F8043BC7F380070DD927B1043E70
:10159000032E42F8043B07D9174647F8043B083EA0
:1015A00053603A1D032EF7D8231F23F00302131DA7
:1015B00004F00304ED18ACB1C9B2EA432C1905F8E4
:1015C000011BA318A54203F001020BD01AB105F8C4
:1015D000011BA54206D02B4603F8011B69705D1C58
:1015E000A542F8D1F0BC7047054614468EE700BF0F
:1015F0004F6E650054776F00546872656500000097
:101600005441534B310000005441534B3200000011
:0816100049444C4500000000B4
:04161800AAAAAAAA26
:0400000508000000EF
:00000001FF
